{
  "contractName": "OwnershipVerification",
  "abi": [
    {
      "inputs": [
        {
          "internalType": "uint256",
          "name": "",
          "type": "uint256"
        }
      ],
      "name": "commodities",
      "outputs": [
        {
          "internalType": "uint256",
          "name": "id",
          "type": "uint256"
        },
        {
          "internalType": "address",
          "name": "owner",
          "type": "address"
        },
        {
          "internalType": "string",
          "name": "details",
          "type": "string"
        }
      ],
      "stateMutability": "view",
      "type": "function",
      "constant": true
    },
    {
      "inputs": [
        {
          "internalType": "uint256",
          "name": "_id",
          "type": "uint256"
        },
        {
          "internalType": "string",
          "name": "_details",
          "type": "string"
        }
      ],
      "name": "registerCommodity",
      "outputs": [],
      "stateMutability": "nonpayable",
      "type": "function"
    },
    {
      "inputs": [
        {
          "internalType": "uint256",
          "name": "_id",
          "type": "uint256"
        },
        {
          "internalType": "address",
          "name": "_owner",
          "type": "address"
        }
      ],
      "name": "isOwner",
      "outputs": [
        {
          "internalType": "bool",
          "name": "",
          "type": "bool"
        }
      ],
      "stateMutability": "view",
      "type": "function",
      "constant": true
    },
    {
      "inputs": [
        {
          "internalType": "uint256",
          "name": "_id",
          "type": "uint256"
        },
        {
          "internalType": "address",
          "name": "_newOwner",
          "type": "address"
        }
      ],
      "name": "transferOwnership",
      "outputs": [],
      "stateMutability": "nonpayable",
      "type": "function"
    },
    {
      "inputs": [
        {
          "internalType": "uint256",
          "name": "_id",
          "type": "uint256"
        }
      ],
      "name": "getCommodity",
      "outputs": [
        {
          "components": [
            {
              "internalType": "uint256",
              "name": "id",
              "type": "uint256"
            },
            {
              "internalType": "address",
              "name": "owner",
              "type": "address"
            },
            {
              "internalType": "string",
              "name": "details",
              "type": "string"
            }
          ],
          "internalType": "struct OwnershipVerification.Commodity",
          "name": "",
          "type": "tuple"
        }
      ],
      "stateMutability": "view",
      "type": "function",
      "constant": true
    }
  ],
  "bytecode": "0x608060405234801561001057600080fd5b50610f3d806100206000396000f3fe608060405234801561001057600080fd5b50600436106100575760003560e01c806329507f731461005c5780632f63f34f146100785780635a5d096c146100a8578063a29bb003146100d8578063fcfd84e2146100f4575b600080fd5b61007660048036038101906100719190610757565b610126565b005b610092600480360381019061008d9190610797565b6102c5565b60405161009f91906108c2565b60405180910390f35b6100c260048036038101906100bd9190610757565b610487565b6040516100cf91906108ff565b60405180910390f35b6100f260048036038101906100ed9190610a4f565b6104f5565b005b61010e60048036038101906101099190610797565b6105a6565b60405161011d93929190610b13565b60405180910390f35b600073ffffffffffffffffffffffffffffffffffffffff1660008084815260200190815260200160002060010160009054906101000a900473ffffffffffffffffffffffffffffffffffffffff1673ffffffffffffffffffffffffffffffffffffffff16036101ca576040517f08c379a00000000000000000000000000000000000000000000000000000000081526004016101c190610b9d565b60405180910390fd5b60008083815260200190815260200160002060010160009054906101000a900473ffffffffffffffffffffffffffffffffffffffff1673ffffffffffffffffffffffffffffffffffffffff163373ffffffffffffffffffffffffffffffffffffffff161461026d576040517f08c379a000000000000000000000000000000000000000000000000000000000815260040161026490610c09565b60405180910390fd5b8060008084815260200190815260200160002060010160006101000a81548173ffffffffffffffffffffffffffffffffffffffff021916908373ffffffffffffffffffffffffffffffffffffffff1602179055505050565b6102cd610678565b600073ffffffffffffffffffffffffffffffffffffffff1660008084815260200190815260200160002060010160009054906101000a900473ffffffffffffffffffffffffffffffffffffffff1673ffffffffffffffffffffffffffffffffffffffff1603610371576040517f08c379a000000000000000000000000000000000000000000000000000000000815260040161036890610b9d565b60405180910390fd5b600080838152602001908152602001600020604051806060016040529081600082015481526020016001820160009054906101000a900473ffffffffffffffffffffffffffffffffffffffff1673ffffffffffffffffffffffffffffffffffffffff1673ffffffffffffffffffffffffffffffffffffffff1681526020016002820180546103fe90610c58565b80601f016020809104026020016040519081016040528092919081815260200182805461042a90610c58565b80156104775780601f1061044c57610100808354040283529160200191610477565b820191906000526020600020905b81548152906001019060200180831161045a57829003601f168201915b5050505050815250509050919050565b60008173ffffffffffffffffffffffffffffffffffffffff1660008085815260200190815260200160002060010160009054906101000a900473ffffffffffffffffffffffffffffffffffffffff1673ffffffffffffffffffffffffffffffffffffffff1614905092915050565b60405180606001604052808381526020013373ffffffffffffffffffffffffffffffffffffffff168152602001828152506000808481526020019081526020016000206000820151816000015560208201518160010160006101000a81548173ffffffffffffffffffffffffffffffffffffffff021916908373ffffffffffffffffffffffffffffffffffffffff160217905550604082015181600201908161059e9190610e35565b509050505050565b60006020528060005260406000206000915090508060000154908060010160009054906101000a900473ffffffffffffffffffffffffffffffffffffffff16908060020180546105f590610c58565b80601f016020809104026020016040519081016040528092919081815260200182805461062190610c58565b801561066e5780601f106106435761010080835404028352916020019161066e565b820191906000526020600020905b81548152906001019060200180831161065157829003601f168201915b5050505050905083565b604051806060016040528060008152602001600073ffffffffffffffffffffffffffffffffffffffff168152602001606081525090565b6000604051905090565b600080fd5b600080fd5b6000819050919050565b6106d6816106c3565b81146106e157600080fd5b50565b6000813590506106f3816106cd565b92915050565b600073ffffffffffffffffffffffffffffffffffffffff82169050919050565b6000610724826106f9565b9050919050565b61073481610719565b811461073f57600080fd5b50565b6000813590506107518161072b565b92915050565b6000806040838503121561076e5761076d6106b9565b5b600061077c858286016106e4565b925050602061078d85828601610742565b9150509250929050565b6000602082840312156107ad576107ac6106b9565b5b60006107bb848285016106e4565b91505092915050565b6107cd816106c3565b82525050565b6107dc81610719565b82525050565b600081519050919050565b600082825260208201905092915050565b60005b8381101561081c578082015181840152602081019050610801565b60008484015250505050565b6000601f19601f8301169050919050565b6000610844826107e2565b61084e81856107ed565b935061085e8185602086016107fe565b61086781610828565b840191505092915050565b600060608301600083015161088a60008601826107c4565b50602083015161089d60208601826107d3565b50604083015184820360408601526108b58282610839565b9150508091505092915050565b600060208201905081810360008301526108dc8184610872565b905092915050565b60008115159050919050565b6108f9816108e4565b82525050565b600060208201905061091460008301846108f0565b92915050565b600080fd5b600080fd5b7f4e487b7100000000000000000000000000000000000000000000000000000000600052604160045260246000fd5b61095c82610828565b810181811067ffffffffffffffff8211171561097b5761097a610924565b5b80604052505050565b600061098e6106af565b905061099a8282610953565b919050565b600067ffffffffffffffff8211156109ba576109b9610924565b5b6109c382610828565b9050602081019050919050565b82818337600083830152505050565b60006109f26109ed8461099f565b610984565b905082815260208101848484011115610a0e57610a0d61091f565b5b610a198482856109d0565b509392505050565b600082601f830112610a3657610a3561091a565b5b8135610a468482602086016109df565b91505092915050565b60008060408385031215610a6657610a656106b9565b5b6000610a74858286016106e4565b925050602083013567ffffffffffffffff811115610a9557610a946106be565b5b610aa185828601610a21565b9150509250929050565b610ab4816106c3565b82525050565b610ac381610719565b82525050565b600082825260208201905092915050565b6000610ae5826107e2565b610aef8185610ac9565b9350610aff8185602086016107fe565b610b0881610828565b840191505092915050565b6000606082019050610b286000830186610aab565b610b356020830185610aba565b8181036040830152610b478184610ada565b9050949350505050565b7f436f6d6d6f6469747920646f6573206e6f742065786973740000000000000000600082015250565b6000610b87601883610ac9565b9150610b9282610b51565b602082019050919050565b60006020820190508181036000830152610bb681610b7a565b9050919050565b7f4e6f7420746865206f776e657200000000000000000000000000000000000000600082015250565b6000610bf3600d83610ac9565b9150610bfe82610bbd565b602082019050919050565b60006020820190508181036000830152610c2281610be6565b9050919050565b7f4e487b7100000000000000000000000000000000000000000000000000000000600052602260045260246000fd5b60006002820490506001821680610c7057607f821691505b602082108103610c8357610c82610c29565b5b50919050565b60008190508160005260206000209050919050565b60006020601f8301049050919050565b600082821b905092915050565b600060088302610ceb7fffffffffffffffffffffffffffffffffffffffffffffffffffffffffffffffff82610cae565b610cf58683610cae565b95508019841693508086168417925050509392505050565b6000819050919050565b6000610d32610d2d610d28846106c3565b610d0d565b6106c3565b9050919050565b6000819050919050565b610d4c83610d17565b610d60610d5882610d39565b848454610cbb565b825550505050565b600090565b610d75610d68565b610d80818484610d43565b505050565b5b81811015610da457610d99600082610d6d565b600181019050610d86565b5050565b601f821115610de957610dba81610c89565b610dc384610c9e565b81016020851015610dd2578190505b610de6610dde85610c9e565b830182610d85565b50505b505050565b600082821c905092915050565b6000610e0c60001984600802610dee565b1980831691505092915050565b6000610e258383610dfb565b9150826002028217905092915050565b610e3e826107e2565b67ffffffffffffffff811115610e5757610e56610924565b5b610e618254610c58565b610e6c828285610da8565b600060209050601f831160018114610e9f5760008415610e8d578287015190505b610e978582610e19565b865550610eff565b601f198416610ead86610c89565b60005b82811015610ed557848901518255600182019150602085019450602081019050610eb0565b86831015610ef25784890151610eee601f891682610dfb565b8355505b6001600288020188555050505b50505050505056fea26469706673582212209147266875bce48d7fa38cc52cd52a41d292e909a52101f8a204d19b021b74e364736f6c63430008130033",
  "immutableReferences": {},
  "source": "// SPDX-License-Identifier: MIT\r\npragma solidity ^0.8.19;\r\n\r\ncontract OwnershipVerification {\r\n    struct Commodity {\r\n        uint id;\r\n        address owner;\r\n        string details;\r\n    }\r\n\r\n    mapping(uint => Commodity) public commodities;\r\n\r\n    // Register a new commodity\r\n    function registerCommodity(uint _id, string memory _details) public {\r\n        commodities[_id] = Commodity(_id, msg.sender, _details);\r\n    }\r\n\r\n    function isOwner(uint _id, address _owner) public view returns (bool) {\r\n    return commodities[_id].owner == _owner;\r\n}\r\n\r\n    // Transfer ownership of a commodity\r\n    function transferOwnership(uint _id, address _newOwner) public {\r\n        require(commodities[_id].owner != address(0), \"Commodity does not exist\");\r\n        require(msg.sender == commodities[_id].owner, \"Not the owner\");\r\n        commodities[_id].owner = _newOwner;\r\n    }\r\n\r\n    // Fetch details of a commodity\r\n    function getCommodity(uint _id) public view returns (Commodity memory) {\r\n        require(commodities[_id].owner != address(0), \"Commodity does not exist\");\r\n        return commodities[_id];\r\n    }\r\n\r\n    \r\n}\r\n",
  "sourcePath": "D:\\Ownership verification\\contracts\\OwnershipVerification.sol",
  "compiler": {
    "name": "solc",
    "version": "0.8.19+commit.7dd6d404.Emscripten.clang"
  },
  "schemaVersion": "3.4.16",
  "updatedAt": "2024-09-21T16:14:11.849Z",
  "networkType": "ethereum",
  "devdoc": {
    "kind": "dev",
    "methods": {},
    "version": 1
  },
  "userdoc": {
    "kind": "user",
    "methods": {},
    "version": 1
  }
}