{
  "contractName": "OwnershipVerification",
  "abi": [
    {
      "inputs": [
        {
          "internalType": "bytes32",
          "name": "",
          "type": "bytes32"
        }
      ],
      "name": "ownershipHashes",
      "outputs": [
        {
          "internalType": "address",
          "name": "",
          "type": "address"
        }
      ],
      "stateMutability": "view",
      "type": "function",
      "constant": true
    },
    {
      "inputs": [
        {
          "internalType": "bytes32",
          "name": "_ownershipHash",
          "type": "bytes32"
        }
      ],
      "name": "registerOwnership",
      "outputs": [],
      "stateMutability": "nonpayable",
      "type": "function"
    },
    {
      "inputs": [
        {
          "internalType": "bytes32",
          "name": "_ownershipHash",
          "type": "bytes32"
        }
      ],
      "name": "isOwner",
      "outputs": [
        {
          "internalType": "address",
          "name": "",
          "type": "address"
        }
      ],
      "stateMutability": "view",
      "type": "function",
      "constant": true
    }
  ],
  "bytecode": "0x608060405234801561001057600080fd5b5061027f806100206000396000f3fe608060405234801561001057600080fd5b50600436106100415760003560e01c8063144c5c1f14610046578063d42ff41014610076578063eeac39d814610092575b600080fd5b610060600480360381019061005b91906101c0565b6100c2565b60405161006d919061022e565b60405180910390f35b610090600480360381019061008b91906101c0565b6100f5565b005b6100ac60048036038101906100a791906101c0565b610149565b6040516100b9919061022e565b60405180910390f35b60006020528060005260406000206000915054906101000a900473ffffffffffffffffffffffffffffffffffffffff1681565b3360008083815260200190815260200160002060006101000a81548173ffffffffffffffffffffffffffffffffffffffff021916908373ffffffffffffffffffffffffffffffffffffffff16021790555050565b600080600083815260200190815260200160002060009054906101000a900473ffffffffffffffffffffffffffffffffffffffff169050919050565b600080fd5b6000819050919050565b61019d8161018a565b81146101a857600080fd5b50565b6000813590506101ba81610194565b92915050565b6000602082840312156101d6576101d5610185565b5b60006101e4848285016101ab565b91505092915050565b600073ffffffffffffffffffffffffffffffffffffffff82169050919050565b6000610218826101ed565b9050919050565b6102288161020d565b82525050565b6000602082019050610243600083018461021f565b9291505056fea26469706673582212207d930640b2551aaa92509778c02ddd14bf03153db7b99643a3b494e89dd21a5364736f6c63430008130033",
  "immutableReferences": {},
  "source": "// SPDX-License-Identifier: MIT\r\npragma solidity ^0.8.19;\r\n\r\ncontract OwnershipVerification {\r\n    mapping(bytes32 => address) public ownershipHashes;\r\n\r\n    // Register ownership\r\n    function registerOwnership(bytes32 _ownershipHash) public {\r\n        ownershipHashes[_ownershipHash] = msg.sender;\r\n    }\r\n\r\n    // Check ownership\r\n    function isOwner(bytes32 _ownershipHash) public view returns (address) {\r\n        return ownershipHashes[_ownershipHash];\r\n    }\r\n}\r\n",
  "sourcePath": "D:\\Ownership verification\\contracts\\OwnershipVerification.sol",
  "compiler": {
    "name": "solc",
    "version": "0.8.19+commit.7dd6d404.Emscripten.clang"
  },
  "schemaVersion": "3.4.16",
  "updatedAt": "2024-09-21T17:53:35.772Z",
  "networkType": "ethereum",
  "devdoc": {
    "kind": "dev",
    "methods": {},
    "version": 1
  },
  "userdoc": {
    "kind": "user",
    "methods": {},
    "version": 1
  }
}