{
  "contractName": "OwnershipVerification",
  "abi": [
    {
      "inputs": [
        {
          "internalType": "bytes32",
          "name": "",
          "type": "bytes32"
        }
      ],
      "name": "ownershipHashes",
      "outputs": [
        {
          "internalType": "address",
          "name": "",
          "type": "address"
        }
      ],
      "stateMutability": "view",
      "type": "function",
      "constant": true
    },
    {
      "inputs": [
        {
          "internalType": "address",
          "name": "",
          "type": "address"
        },
        {
          "internalType": "uint256",
          "name": "",
          "type": "uint256"
        }
      ],
      "name": "userAssets",
      "outputs": [
        {
          "internalType": "bytes32",
          "name": "",
          "type": "bytes32"
        }
      ],
      "stateMutability": "view",
      "type": "function",
      "constant": true
    },
    {
      "inputs": [
        {
          "internalType": "bytes32",
          "name": "_ownershipHash",
          "type": "bytes32"
        }
      ],
      "name": "registerOwnership",
      "outputs": [],
      "stateMutability": "nonpayable",
      "type": "function"
    },
    {
      "inputs": [
        {
          "internalType": "bytes32",
          "name": "_ownershipHash",
          "type": "bytes32"
        }
      ],
      "name": "isOwner",
      "outputs": [
        {
          "internalType": "address",
          "name": "",
          "type": "address"
        }
      ],
      "stateMutability": "view",
      "type": "function",
      "constant": true
    },
    {
      "inputs": [],
      "name": "getAssets",
      "outputs": [
        {
          "internalType": "bytes32[]",
          "name": "",
          "type": "bytes32[]"
        }
      ],
      "stateMutability": "view",
      "type": "function",
      "constant": true
    }
  ],
  "bytecode": "0x608060405234801561001057600080fd5b506105bb806100206000396000f3fe608060405234801561001057600080fd5b50600436106100575760003560e01c8063144c5c1f1461005c57806367e4ac2c1461008c5780636a8a69aa146100aa578063d42ff410146100da578063eeac39d8146100f6575b600080fd5b61007660048036038101906100719190610350565b610126565b60405161008391906103be565b60405180910390f35b610094610159565b6040516100a19190610497565b60405180910390f35b6100c460048036038101906100bf919061051b565b6101ee565b6040516100d1919061056a565b60405180910390f35b6100f460048036038101906100ef9190610350565b61021f565b005b610110600480360381019061010b9190610350565b6102d9565b60405161011d91906103be565b60405180910390f35b60006020528060005260406000206000915054906101000a900473ffffffffffffffffffffffffffffffffffffffff1681565b6060600160003373ffffffffffffffffffffffffffffffffffffffff1673ffffffffffffffffffffffffffffffffffffffff1681526020019081526020016000208054806020026020016040519081016040528092919081815260200182805480156101e457602002820191906000526020600020905b8154815260200190600101908083116101d0575b5050505050905090565b6001602052816000526040600020818154811061020a57600080fd5b90600052602060002001600091509150505481565b3360008083815260200190815260200160002060006101000a81548173ffffffffffffffffffffffffffffffffffffffff021916908373ffffffffffffffffffffffffffffffffffffffff160217905550600160003373ffffffffffffffffffffffffffffffffffffffff1673ffffffffffffffffffffffffffffffffffffffff16815260200190815260200160002081908060018154018082558091505060019003906000526020600020016000909190919091505550565b600080600083815260200190815260200160002060009054906101000a900473ffffffffffffffffffffffffffffffffffffffff169050919050565b600080fd5b6000819050919050565b61032d8161031a565b811461033857600080fd5b50565b60008135905061034a81610324565b92915050565b60006020828403121561036657610365610315565b5b60006103748482850161033b565b91505092915050565b600073ffffffffffffffffffffffffffffffffffffffff82169050919050565b60006103a88261037d565b9050919050565b6103b88161039d565b82525050565b60006020820190506103d360008301846103af565b92915050565b600081519050919050565b600082825260208201905092915050565b6000819050602082019050919050565b61040e8161031a565b82525050565b60006104208383610405565b60208301905092915050565b6000602082019050919050565b6000610444826103d9565b61044e81856103e4565b9350610459836103f5565b8060005b8381101561048a5781516104718882610414565b975061047c8361042c565b92505060018101905061045d565b5085935050505092915050565b600060208201905081810360008301526104b18184610439565b905092915050565b6104c28161039d565b81146104cd57600080fd5b50565b6000813590506104df816104b9565b92915050565b6000819050919050565b6104f8816104e5565b811461050357600080fd5b50565b600081359050610515816104ef565b92915050565b6000806040838503121561053257610531610315565b5b6000610540858286016104d0565b925050602061055185828601610506565b9150509250929050565b6105648161031a565b82525050565b600060208201905061057f600083018461055b565b9291505056fea2646970667358221220139d6b63837c489b0b8b57bdb83a4007a3841104c4a611667b4067518961e75564736f6c63430008130033",
  "immutableReferences": {},
  "source": "// SPDX-License-Identifier: MIT\r\npragma solidity ^0.8.19;\r\n\r\ncontract OwnershipVerification {\r\n    // Mapping to store ownership hashes\r\n    mapping(bytes32 => address) public ownershipHashes;\r\n\r\n    // Mapping to track assets for each user\r\n    mapping(address => bytes32[]) public userAssets;\r\n\r\n    // Register ownership\r\n    function registerOwnership(bytes32 _ownershipHash) public {\r\n        ownershipHashes[_ownershipHash] = msg.sender; // Store the ownership hash\r\n        userAssets[msg.sender].push(_ownershipHash); // Track the asset for the user\r\n    }\r\n\r\n    // Check ownership\r\n    function isOwner(bytes32 _ownershipHash) public view returns (address) {\r\n        return ownershipHashes[_ownershipHash];\r\n    }\r\n\r\n    // Get assets for the caller\r\n    function getAssets() public view returns (bytes32[] memory) {\r\n        return userAssets[msg.sender]; // Return assets for the user calling the function\r\n    }\r\n}\r\n",
  "sourcePath": "D:\\Ownership verification\\contracts\\OwnershipVerification.sol",
  "compiler": {
    "name": "solc",
    "version": "0.8.19+commit.7dd6d404.Emscripten.clang"
  },
  "schemaVersion": "3.4.16",
  "updatedAt": "2024-09-21T18:41:06.576Z",
  "networkType": "ethereum",
  "devdoc": {
    "kind": "dev",
    "methods": {},
    "version": 1
  },
  "userdoc": {
    "kind": "user",
    "methods": {},
    "version": 1
  }
}