{
  "contractName": "OwnershipVerification",
  "abi": [
    {
      "inputs": [
        {
          "internalType": "bytes32",
          "name": "",
          "type": "bytes32"
        }
      ],
      "name": "ownershipHashes",
      "outputs": [
        {
          "internalType": "address",
          "name": "",
          "type": "address"
        }
      ],
      "stateMutability": "view",
      "type": "function",
      "constant": true
    },
    {
      "inputs": [
        {
          "internalType": "address",
          "name": "",
          "type": "address"
        },
        {
          "internalType": "uint256",
          "name": "",
          "type": "uint256"
        }
      ],
      "name": "userAssets",
      "outputs": [
        {
          "internalType": "bytes32",
          "name": "",
          "type": "bytes32"
        }
      ],
      "stateMutability": "view",
      "type": "function",
      "constant": true
    },
    {
      "inputs": [
        {
          "internalType": "bytes32",
          "name": "_ownershipHash",
          "type": "bytes32"
        }
      ],
      "name": "registerOwnership",
      "outputs": [],
      "stateMutability": "nonpayable",
      "type": "function"
    },
    {
      "inputs": [
        {
          "internalType": "bytes32",
          "name": "_ownershipHash",
          "type": "bytes32"
        }
      ],
      "name": "isOwner",
      "outputs": [
        {
          "internalType": "address",
          "name": "",
          "type": "address"
        }
      ],
      "stateMutability": "view",
      "type": "function",
      "constant": true
    }
  ],
  "bytecode": "0x608060405234801561001057600080fd5b5061041d806100206000396000f3fe608060405234801561001057600080fd5b506004361061004c5760003560e01c8063144c5c1f146100515780636a8a69aa14610081578063d42ff410146100b1578063eeac39d8146100cd575b600080fd5b61006b60048036038101906100669190610292565b6100fd565b6040516100789190610300565b60405180910390f35b61009b6004803603810190610096919061037d565b610130565b6040516100a891906103cc565b60405180910390f35b6100cb60048036038101906100c69190610292565b610161565b005b6100e760048036038101906100e29190610292565b61021b565b6040516100f49190610300565b60405180910390f35b60006020528060005260406000206000915054906101000a900473ffffffffffffffffffffffffffffffffffffffff1681565b6001602052816000526040600020818154811061014c57600080fd5b90600052602060002001600091509150505481565b3360008083815260200190815260200160002060006101000a81548173ffffffffffffffffffffffffffffffffffffffff021916908373ffffffffffffffffffffffffffffffffffffffff160217905550600160003373ffffffffffffffffffffffffffffffffffffffff1673ffffffffffffffffffffffffffffffffffffffff16815260200190815260200160002081908060018154018082558091505060019003906000526020600020016000909190919091505550565b600080600083815260200190815260200160002060009054906101000a900473ffffffffffffffffffffffffffffffffffffffff169050919050565b600080fd5b6000819050919050565b61026f8161025c565b811461027a57600080fd5b50565b60008135905061028c81610266565b92915050565b6000602082840312156102a8576102a7610257565b5b60006102b68482850161027d565b91505092915050565b600073ffffffffffffffffffffffffffffffffffffffff82169050919050565b60006102ea826102bf565b9050919050565b6102fa816102df565b82525050565b600060208201905061031560008301846102f1565b92915050565b610324816102df565b811461032f57600080fd5b50565b6000813590506103418161031b565b92915050565b6000819050919050565b61035a81610347565b811461036557600080fd5b50565b60008135905061037781610351565b92915050565b6000806040838503121561039457610393610257565b5b60006103a285828601610332565b92505060206103b385828601610368565b9150509250929050565b6103c68161025c565b82525050565b60006020820190506103e160008301846103bd565b9291505056fea2646970667358221220c68bf48602016f8d6d6cda46711596f7b0244d32a0147bb7d3fcd040cf83322b64736f6c63430008130033",
  "immutableReferences": {},
  "source": "// SPDX-License-Identifier: MIT\r\npragma solidity ^0.8.19;\r\n\r\ncontract OwnershipVerification {\r\n    // Mapping to store ownership hashes\r\n    mapping(bytes32 => address) public ownershipHashes;\r\n\r\n    // Mapping to track assets for each user\r\n    mapping(address => bytes32[]) public userAssets;\r\n\r\n    // Register ownership\r\n    function registerOwnership(bytes32 _ownershipHash) public {\r\n        ownershipHashes[_ownershipHash] = msg.sender; // Store the ownership hash\r\n        userAssets[msg.sender].push(_ownershipHash); // Track the asset for the user\r\n    }\r\n\r\n    // Check ownership\r\n    function isOwner(bytes32 _ownershipHash) public view returns (address) {\r\n        return ownershipHashes[_ownershipHash];\r\n    }\r\n\r\n\r\n\r\n}",
  "sourcePath": "D:\\Ownership verification\\contracts\\OwnershipVerification.sol",
  "compiler": {
    "name": "solc",
    "version": "0.8.19+commit.7dd6d404.Emscripten.clang"
  },
  "schemaVersion": "3.4.16",
  "updatedAt": "2024-09-22T05:18:01.212Z",
  "networkType": "ethereum",
  "devdoc": {
    "kind": "dev",
    "methods": {},
    "version": 1
  },
  "userdoc": {
    "kind": "user",
    "methods": {},
    "version": 1
  }
}